{"abi":[{"type":"constructor","inputs":[{"name":"_vvsRouter","type":"address","internalType":"address"},{"name":"_usdc","type":"address","internalType":"address"},{"name":"_usdt","type":"address","internalType":"address"},{"name":"_usdcUsdtPair","type":"address","internalType":"address"}],"stateMutability":"nonpayable"},{"type":"function","name":"calculateYield","inputs":[{"name":"user","type":"address","internalType":"address"},{"name":"initialDeposit","type":"uint256","internalType":"uint256"}],"outputs":[{"name":"yieldEarned","type":"uint256","internalType":"uint256"}],"stateMutability":"view"},{"type":"function","name":"deposit","inputs":[{"name":"user","type":"address","internalType":"address"},{"name":"amount","type":"uint256","internalType":"uint256"}],"outputs":[{"name":"liquidityTokens","type":"uint256","internalType":"uint256"}],"stateMutability":"nonpayable"},{"type":"function","name":"getUserValue","inputs":[{"name":"user","type":"address","internalType":"address"}],"outputs":[{"name":"usdcValue","type":"uint256","internalType":"uint256"}],"stateMutability":"view"},{"type":"function","name":"i_USDC","inputs":[],"outputs":[{"name":"","type":"address","internalType":"contract IERC20"}],"stateMutability":"view"},{"type":"function","name":"i_USDC_USDT_PAIR","inputs":[],"outputs":[{"name":"","type":"address","internalType":"contract IVVSPair"}],"stateMutability":"view"},{"type":"function","name":"i_USDT","inputs":[],"outputs":[{"name":"","type":"address","internalType":"contract IERC20"}],"stateMutability":"view"},{"type":"function","name":"i_VVS_ROUTER","inputs":[],"outputs":[{"name":"","type":"address","internalType":"contract IVVSRouter"}],"stateMutability":"view"},{"type":"function","name":"owner","inputs":[],"outputs":[{"name":"","type":"address","internalType":"address"}],"stateMutability":"view"},{"type":"function","name":"renounceOwnership","inputs":[],"outputs":[],"stateMutability":"nonpayable"},{"type":"function","name":"s_savingsVault","inputs":[],"outputs":[{"name":"","type":"address","internalType":"address"}],"stateMutability":"view"},{"type":"function","name":"s_slippageTolerance","inputs":[],"outputs":[{"name":"","type":"uint256","internalType":"uint256"}],"stateMutability":"view"},{"type":"function","name":"s_totalLiquidityTokens","inputs":[],"outputs":[{"name":"","type":"uint256","internalType":"uint256"}],"stateMutability":"view"},{"type":"function","name":"s_userLiquidityTokens","inputs":[{"name":"","type":"address","internalType":"address"}],"outputs":[{"name":"","type":"uint256","internalType":"uint256"}],"stateMutability":"view"},{"type":"function","name":"savingsVault","inputs":[],"outputs":[{"name":"","type":"address","internalType":"address"}],"stateMutability":"view"},{"type":"function","name":"setSavingsVault","inputs":[{"name":"_savingsVault","type":"address","internalType":"address"}],"outputs":[],"stateMutability":"nonpayable"},{"type":"function","name":"setSlippageTolerance","inputs":[{"name":"_slippageTolerance","type":"uint256","internalType":"uint256"}],"outputs":[],"stateMutability":"nonpayable"},{"type":"function","name":"slippageTolerance","inputs":[],"outputs":[{"name":"","type":"uint256","internalType":"uint256"}],"stateMutability":"view"},{"type":"function","name":"totalLiquidityTokens","inputs":[],"outputs":[{"name":"","type":"uint256","internalType":"uint256"}],"stateMutability":"view"},{"type":"function","name":"transferOwnership","inputs":[{"name":"newOwner","type":"address","internalType":"address"}],"outputs":[],"stateMutability":"nonpayable"},{"type":"function","name":"userLiquidityTokens","inputs":[{"name":"user","type":"address","internalType":"address"}],"outputs":[{"name":"","type":"uint256","internalType":"uint256"}],"stateMutability":"view"},{"type":"function","name":"withdraw","inputs":[{"name":"user","type":"address","internalType":"address"},{"name":"liquidityTokens","type":"uint256","internalType":"uint256"}],"outputs":[{"name":"usdcAmount","type":"uint256","internalType":"uint256"}],"stateMutability":"nonpayable"},{"type":"event","name":"Deposited","inputs":[{"name":"user","type":"address","indexed":true,"internalType":"address"},{"name":"usdcAmount","type":"uint256","indexed":false,"internalType":"uint256"},{"name":"liquidityTokens","type":"uint256","indexed":false,"internalType":"uint256"}],"anonymous":false},{"type":"event","name":"OwnershipTransferred","inputs":[{"name":"previousOwner","type":"address","indexed":true,"internalType":"address"},{"name":"newOwner","type":"address","indexed":true,"internalType":"address"}],"anonymous":false},{"type":"event","name":"SavingsVaultUpdated","inputs":[{"name":"oldVault","type":"address","indexed":true,"internalType":"address"},{"name":"newVault","type":"address","indexed":true,"internalType":"address"}],"anonymous":false},{"type":"event","name":"SlippageToleranceUpdated","inputs":[{"name":"oldTolerance","type":"uint256","indexed":false,"internalType":"uint256"},{"name":"newTolerance","type":"uint256","indexed":false,"internalType":"uint256"}],"anonymous":false},{"type":"event","name":"Withdrawn","inputs":[{"name":"user","type":"address","indexed":true,"internalType":"address"},{"name":"liquidityTokens","type":"uint256","indexed":false,"internalType":"uint256"},{"name":"usdcAmount","type":"uint256","indexed":false,"internalType":"uint256"}],"anonymous":false},{"type":"event","name":"YieldHarvested","inputs":[{"name":"user","type":"address","indexed":true,"internalType":"address"},{"name":"yieldAmount","type":"uint256","indexed":false,"internalType":"uint256"}],"anonymous":false},{"type":"error","name":"OwnableInvalidOwner","inputs":[{"name":"owner","type":"address","internalType":"address"}]},{"type":"error","name":"OwnableUnauthorizedAccount","inputs":[{"name":"account","type":"address","internalType":"address"}]},{"type":"error","name":"ReentrancyGuardReentrantCall","inputs":[]},{"type":"error","name":"SafeERC20FailedOperation","inputs":[{"name":"token","type":"address","internalType":"address"}]},{"type":"error","name":"VVSYieldStrategy__InsufficientLiquidity","inputs":[]},{"type":"error","name":"VVSYieldStrategy__OnlyVault","inputs":[]},{"type":"error","name":"VVSYieldStrategy__SlippageTooHigh","inputs":[]},{"type":"error","name":"VVSYieldStrategy__ZeroAddress","inputs":[]},{"type":"error","name":"VVSYieldStrategy__ZeroAmount","inputs":[]}],"bytecode":{"object":"0x610100604052603260045534801562000016575f80fd5b506040516200196e3803806200196e83398101604081905262000039916200026c565b60017f9b779b17422d0df92223018b32b4d1fa46e071723d6817e2486d003becc55f005533806200008357604051631e4fbdf760e01b81525f600482015260240160405180910390fd5b6200008e8162000201565b506001600160a01b0384161580620000ad57506001600160a01b038316155b80620000c057506001600160a01b038216155b80620000d357506001600160a01b038116155b15620000f25760405163d5821dd360e01b815260040160405180910390fd5b6001600160a01b03848116608081905284821660a081905284831660c05291831660e05260405163095ea7b360e01b815260048101919091525f19602482015263095ea7b3906044016020604051808303815f875af115801562000158573d5f803e3d5ffd5b505050506040513d601f19601f820116820180604052508101906200017e9190620002c6565b5060c05160405163095ea7b360e01b81526001600160a01b0386811660048301525f1960248301529091169063095ea7b3906044016020604051808303815f875af1158015620001d0573d5f803e3d5ffd5b505050506040513d601f19601f82011682018060405250810190620001f69190620002c6565b5050505050620002ee565b5f80546001600160a01b038381166001600160a01b0319831681178455604051919092169283917f8be0079c531659141344cd1fd0a4f28419497f9722a3daafe3b4186f6b6457e09190a35050565b80516001600160a01b038116811462000267575f80fd5b919050565b5f805f806080858703121562000280575f80fd5b6200028b8562000250565b93506200029b6020860162000250565b9250620002ab6040860162000250565b9150620002bb6060860162000250565b905092959194509250565b5f60208284031215620002d7575f80fd5b81518015158114620002e7575f80fd5b9392505050565b60805160a05160c05160e0516115c0620003ae5f395f818161018f01528181610591015281816106170152818161069a0152610ec201525f81816102ca01528181610b5e01528181610d4c01528181610f7f015261107101525f818161022d015281816103d30152818161071d0152818161076a0152818161092401528181610b0b01528181610d2b01528181610f5e01526110c401525f818161028a01528181610be501528181610d0401528181610e8f0152610f3701526115c05ff3fe608060405234801561000f575f80fd5b5060043610610132575f3560e01c8063804b4096116100b4578063d03153aa11610079578063d03153aa146102ac578063dac1e08b146102b4578063ddb99ee2146102c5578063f2fde38b146102ec578063f3fef3a3146102ff578063f54b7fb414610312575f80fd5b8063804b4096146102285780638da5cb5b1461024f5780639bfdc0c21461025f578063a78c849b14610272578063b079294514610285575f80fd5b80635758d0d3116100fa5780635758d0d3146101dc578063579d4f19146101e55780636f2db47d146101ee578063715018a6146102015780637483fad214610209575f80fd5b8063117da1ee146101365780631cb4a3511461014b5780633652b32c146101625780633aa32e241461018a57806347e7ef24146101c9575b5f80fd5b61014961014436600461122e565b610325565b005b6003545b6040519081526020015b60405180910390f35b61014f610170366004611259565b6001600160a01b03165f9081526002602052604090205490565b6101b17f000000000000000000000000000000000000000000000000000000000000000081565b6040516001600160a01b039091168152602001610159565b61014f6101d736600461127b565b610395565b61014f60045481565b61014f60035481565b6001546101b1906001600160a01b031681565b6101496104d3565b61014f610217366004611259565b60026020525f908152604090205481565b6101b17f000000000000000000000000000000000000000000000000000000000000000081565b5f546001600160a01b03166101b1565b61014961026d366004611259565b6104e6565b61014f610280366004611259565b610566565b6101b17f000000000000000000000000000000000000000000000000000000000000000081565b60045461014f565b6001546001600160a01b03166101b1565b6101b17f000000000000000000000000000000000000000000000000000000000000000081565b6101496102fa366004611259565b6107fd565b61014f61030d36600461127b565b61083f565b61014f61032036600461127b565b6109a8565b61032d610a37565b6101f481111561035057604051632df007f960e21b815260040160405180910390fd5b600480549082905560408051828152602081018490527fddd31550b26e9ef8ade466958be83ff8a014d9b4f36d546b61a6847a45306575910160405180910390a15050565b5f61039e610a63565b6103a6610a8e565b815f036103c65760405163248c88c160e01b815260040160405180910390fd5b6103fb6001600160a01b037f000000000000000000000000000000000000000000000000000000000000000016333085610aa9565b5f6104076002846112b9565b90505f61041382610ae5565b90505f806104218484610ca3565b6001600160a01b038a165f9081526002602052604081208054929950939550919350879291906104529084906112d8565b925050819055508460035f82825461046a91906112d8565b909155505060408051878152602081018790526001600160a01b038916917f73a19dd210f1a7f902193214c0ee91dd35ee5b4d920cba8d519eca65a7b488ca910160405180910390a2505050506104cd60015f8051602061156b83398151915255565b92915050565b6104db610a37565b6104e45f610e29565b565b6104ee610a37565b6001600160a01b0381166105155760405163d5821dd360e01b815260040160405180910390fd5b600180546001600160a01b038381166001600160a01b0319831681179093556040519116919082907f63a2598921144b776e170dbbb64c0e76db7ae7d814759bb26ce190ba80aba06f905f90a35050565b6001600160a01b0381165f9081526002602052604081205480820361058d57505f92915050565b5f807f00000000000000000000000000000000000000000000000000000000000000006001600160a01b0316630902f1ac6040518163ffffffff1660e01b8152600401606060405180830381865afa1580156105eb573d5f803e3d5ffd5b505050506040513d601f19601f8201168201806040525081019061060f9190611306565b50915091505f7f00000000000000000000000000000000000000000000000000000000000000006001600160a01b03166318160ddd6040518163ffffffff1660e01b8152600401602060405180830381865afa158015610671573d5f803e3d5ffd5b505050506040513d601f19601f820116820180604052508101906106959190611352565b90505f7f00000000000000000000000000000000000000000000000000000000000000006001600160a01b0316630dfe16816040518163ffffffff1660e01b8152600401602060405180830381865afa1580156106f4573d5f803e3d5ffd5b505050506040513d601f19601f820116820180604052508101906107189190611369565b90505f7f00000000000000000000000000000000000000000000000000000000000000006001600160a01b0316826001600160a01b03161461075a578361075c565b845b6001600160701b031690505f7f00000000000000000000000000000000000000000000000000000000000000006001600160a01b0316836001600160a01b0316146107a757856107a9565b845b6001600160701b031690505f846107c08985611384565b6107ca91906112b9565b90505f856107d88a85611384565b6107e291906112b9565b90506107ee81836112d8565b9b9a5050505050505050505050565b610805610a37565b6001600160a01b03811661083357604051631e4fbdf760e01b81525f60048201526024015b60405180910390fd5b61083c81610e29565b50565b5f610848610a63565b610850610a8e565b815f036108705760405163248c88c160e01b815260040160405180910390fd5b6001600160a01b0383165f908152600260205260409020548211156108a8576040516313e61b4960e21b815260040160405180910390fd5b5f806108b384610e78565b915091505f6108c18261104b565b90506108cd81846112d8565b6001600160a01b0387165f908152600260205260408120805492965087929091906108f990849061139b565b925050819055508460035f828254610911919061139b565b9091555061094b90506001600160a01b037f00000000000000000000000000000000000000000000000000000000000000001633866110f6565b60408051868152602081018690526001600160a01b038816917f92ccf450a286a957af52509bc1c9939d1a6a481783e142e41e2499f0bb66ebc6910160405180910390a25050506104cd60015f8051602061156b83398151915255565b60405163a78c849b60e01b81526001600160a01b03831660048201525f908190309063a78c849b90602401602060405180830381865afa1580156109ee573d5f803e3d5ffd5b505050506040513d601f19601f82011682018060405250810190610a129190611352565b905082811115610a2e57610a26838261139b565b9150506104cd565b505f9392505050565b5f546001600160a01b031633146104e45760405163118cdaa760e01b815233600482015260240161082a565b6001546001600160a01b031633146104e45760405163990f7f9d60e01b815260040160405180910390fd5b610a96611130565b60025f8051602061156b83398151915255565b610ab784848484600161115f565b610adf57604051635274afe760e01b81526001600160a01b038516600482015260240161082a565b50505050565b6040805160028082526060820183525f92839291906020830190803683370190505090507f0000000000000000000000000000000000000000000000000000000000000000815f81518110610b3c57610b3c6113c2565b60200260200101906001600160a01b031690816001600160a01b0316815250507f000000000000000000000000000000000000000000000000000000000000000081600181518110610b9057610b906113c2565b60200260200101906001600160a01b031690816001600160a01b0316815250505f612710600454612710610bc4919061139b565b610bce9086611384565b610bd891906112b9565b90505f6001600160a01b037f0000000000000000000000000000000000000000000000000000000000000000166338ed173986848630610c1a426103846112d8565b6040518663ffffffff1660e01b8152600401610c3a9594939291906113d6565b5f604051808303815f875af1158015610c55573d5f803e3d5ffd5b505050506040513d5f823e601f3d908101601f19168201604052610c7c9190810190611445565b905080600181518110610c9157610c916113c2565b60200260200101519350505050919050565b5f805f80612710600454612710610cba919061139b565b610cc49088611384565b610cce91906112b9565b90505f612710600454612710610ce4919061139b565b610cee9088611384565b610cf891906112b9565b90506001600160a01b037f00000000000000000000000000000000000000000000000000000000000000001663e8e337007f00000000000000000000000000000000000000000000000000000000000000007f00000000000000000000000000000000000000000000000000000000000000008a8a878730610d7c426103846112d8565b60405160e08a901b6001600160e01b03191681526001600160a01b039889166004820152968816602488015260448701959095526064860193909352608485019190915260a484015290921660c482015260e4810191909152610104016060604051808303815f875af1158015610df5573d5f803e3d5ffd5b505050506040513d601f19601f82011682018060405250810190610e1991906114fe565b9196509450925050509250925092565b5f80546001600160a01b038381166001600160a01b0319831681178455604051919092169283917f8be0079c531659141344cd1fd0a4f28419497f9722a3daafe3b4186f6b6457e09190a35050565b60405163095ea7b360e01b81526001600160a01b037f000000000000000000000000000000000000000000000000000000000000000081166004830152602482018390525f9182917f0000000000000000000000000000000000000000000000000000000000000000169063095ea7b3906044016020604051808303815f875af1158015610f08573d5f803e3d5ffd5b505050506040513d601f19601f82011682018060405250810190610f2c9190611529565b506001600160a01b037f00000000000000000000000000000000000000000000000000000000000000001663baa2abde7f00000000000000000000000000000000000000000000000000000000000000007f0000000000000000000000000000000000000000000000000000000000000000865f8030610fae426103846112d8565b60405160e089901b6001600160e01b03191681526001600160a01b039788166004820152958716602487015260448601949094526064850192909252608484015290921660a482015260c481019190915260e40160408051808303815f875af115801561101d573d5f803e3d5ffd5b505050506040513d601f19601f820116820180604052508101906110419190611548565b9094909350915050565b6040805160028082526060820183525f92839291906020830190803683370190505090507f0000000000000000000000000000000000000000000000000000000000000000815f815181106110a2576110a26113c2565b60200260200101906001600160a01b031690816001600160a01b0316815250507f000000000000000000000000000000000000000000000000000000000000000081600181518110610b9057610b906113c2565b61110383838360016111cc565b61112b57604051635274afe760e01b81526001600160a01b038416600482015260240161082a565b505050565b5f8051602061156b833981519152546002036104e457604051633ee5aeb560e01b815260040160405180910390fd5b6040516323b872dd60e01b5f8181526001600160a01b038781166004528616602452604485905291602083606481808c5af1925060015f511483166111bb5783831516156111af573d5f823e3d81fd5b5f883b113d1516831692505b604052505f60605295945050505050565b60405163a9059cbb60e01b5f8181526001600160a01b038616600452602485905291602083604481808b5af1925060015f51148316611222578383151615611216573d5f823e3d81fd5b5f873b113d1516831692505b60405250949350505050565b5f6020828403121561123e575f80fd5b5035919050565b6001600160a01b038116811461083c575f80fd5b5f60208284031215611269575f80fd5b813561127481611245565b9392505050565b5f806040838503121561128c575f80fd5b823561129781611245565b946020939093013593505050565b634e487b7160e01b5f52601160045260245ffd5b5f826112d357634e487b7160e01b5f52601260045260245ffd5b500490565b808201808211156104cd576104cd6112a5565b80516001600160701b0381168114611301575f80fd5b919050565b5f805f60608486031215611318575f80fd5b611321846112eb565b925061132f602085016112eb565b9150604084015163ffffffff81168114611347575f80fd5b809150509250925092565b5f60208284031215611362575f80fd5b5051919050565b5f60208284031215611379575f80fd5b815161127481611245565b80820281158282048414176104cd576104cd6112a5565b818103818111156104cd576104cd6112a5565b634e487b7160e01b5f52604160045260245ffd5b634e487b7160e01b5f52603260045260245ffd5b5f60a082018783526020878185015260a0604085015281875180845260c08601915082890193505f5b818110156114245784516001600160a01b0316835293830193918301916001016113ff565b50506001600160a01b03969096166060850152505050608001529392505050565b5f6020808385031215611456575f80fd5b825167ffffffffffffffff8082111561146d575f80fd5b818501915085601f830112611480575f80fd5b815181811115611492576114926113ae565b8060051b604051601f19603f830116810181811085821117156114b7576114b76113ae565b6040529182528482019250838101850191888311156114d4575f80fd5b938501935b828510156114f2578451845293850193928501926114d9565b98975050505050505050565b5f805f60608486031215611510575f80fd5b8351925060208401519150604084015190509250925092565b5f60208284031215611539575f80fd5b81518015158114611274575f80fd5b5f8060408385031215611559575f80fd5b50508051602090910151909290915056fe9b779b17422d0df92223018b32b4d1fa46e071723d6817e2486d003becc55f00a26469706673582212205b5e68054ba450cf613e5bb3ab6f218e3da3347f961dc801451a5a267848244164736f6c63430008140033","linkReferences":{}},"methodIdentifiers":{"calculateYield(address,uint256)":"f54b7fb4","deposit(address,uint256)":"47e7ef24","getUserValue(address)":"a78c849b","i_USDC()":"804b4096","i_USDC_USDT_PAIR()":"3aa32e24","i_USDT()":"ddb99ee2","i_VVS_ROUTER()":"b0792945","owner()":"8da5cb5b","renounceOwnership()":"715018a6","s_savingsVault()":"6f2db47d","s_slippageTolerance()":"5758d0d3","s_totalLiquidityTokens()":"579d4f19","s_userLiquidityTokens(address)":"7483fad2","savingsVault()":"dac1e08b","setSavingsVault(address)":"9bfdc0c2","setSlippageTolerance(uint256)":"117da1ee","slippageTolerance()":"d03153aa","totalLiquidityTokens()":"1cb4a351","transferOwnership(address)":"f2fde38b","userLiquidityTokens(address)":"3652b32c","withdraw(address,uint256)":"f3fef3a3"},"id":32}