{"abi":[{"type":"constructor","inputs":[{"name":"_usdc","type":"address","internalType":"address"}],"stateMutability":"nonpayable"},{"type":"function","name":"MAX_SAVE_AMOUNT","inputs":[],"outputs":[{"name":"","type":"uint256","internalType":"uint256"}],"stateMutability":"view"},{"type":"function","name":"MIN_DEPOSIT","inputs":[],"outputs":[{"name":"","type":"uint256","internalType":"uint256"}],"stateMutability":"view"},{"type":"function","name":"MIN_SAVE_INTERVAL","inputs":[],"outputs":[{"name":"","type":"uint256","internalType":"uint256"}],"stateMutability":"view"},{"type":"function","name":"autoSave","inputs":[{"name":"user","type":"address","internalType":"address"},{"name":"amount","type":"uint256","internalType":"uint256"}],"outputs":[],"stateMutability":"nonpayable"},{"type":"function","name":"backendServer","inputs":[],"outputs":[{"name":"","type":"address","internalType":"address"}],"stateMutability":"view"},{"type":"function","name":"canAutoSave","inputs":[{"name":"user","type":"address","internalType":"address"}],"outputs":[{"name":"","type":"bool","internalType":"bool"}],"stateMutability":"view"},{"type":"function","name":"createAccount","inputs":[{"name":"weeklyGoal","type":"uint256","internalType":"uint256"},{"name":"safetyBuffer","type":"uint256","internalType":"uint256"},{"name":"trustMode","type":"uint8","internalType":"enum SavingsVault.TrustMode"}],"outputs":[],"stateMutability":"nonpayable"},{"type":"function","name":"deposit","inputs":[{"name":"amount","type":"uint256","internalType":"uint256"}],"outputs":[],"stateMutability":"nonpayable"},{"type":"function","name":"depositFor","inputs":[{"name":"user","type":"address","internalType":"address"},{"name":"amount","type":"uint256","internalType":"uint256"}],"outputs":[],"stateMutability":"nonpayable"},{"type":"function","name":"getAccount","inputs":[{"name":"user","type":"address","internalType":"address"}],"outputs":[{"name":"","type":"tuple","internalType":"struct SavingsVault.UserAccount","components":[{"name":"totalDeposited","type":"uint256","internalType":"uint256"},{"name":"totalWithdrawn","type":"uint256","internalType":"uint256"},{"name":"currentBalance","type":"uint256","internalType":"uint256"},{"name":"weeklyGoal","type":"uint256","internalType":"uint256"},{"name":"safetyBuffer","type":"uint256","internalType":"uint256"},{"name":"lastSaveTimestamp","type":"uint256","internalType":"uint256"},{"name":"isActive","type":"bool","internalType":"bool"},{"name":"trustMode","type":"uint8","internalType":"enum SavingsVault.TrustMode"}]}],"stateMutability":"view"},{"type":"function","name":"getUserTotalBalance","inputs":[{"name":"user","type":"address","internalType":"address"}],"outputs":[{"name":"","type":"uint256","internalType":"uint256"}],"stateMutability":"view"},{"type":"function","name":"i_USDC","inputs":[],"outputs":[{"name":"","type":"address","internalType":"contract IERC20"}],"stateMutability":"view"},{"type":"function","name":"owner","inputs":[],"outputs":[{"name":"","type":"address","internalType":"address"}],"stateMutability":"view"},{"type":"function","name":"pause","inputs":[],"outputs":[],"stateMutability":"nonpayable"},{"type":"function","name":"paused","inputs":[],"outputs":[{"name":"","type":"bool","internalType":"bool"}],"stateMutability":"view"},{"type":"function","name":"renounceOwnership","inputs":[],"outputs":[],"stateMutability":"nonpayable"},{"type":"function","name":"s_accounts","inputs":[{"name":"","type":"address","internalType":"address"}],"outputs":[{"name":"totalDeposited","type":"uint256","internalType":"uint256"},{"name":"totalWithdrawn","type":"uint256","internalType":"uint256"},{"name":"currentBalance","type":"uint256","internalType":"uint256"},{"name":"weeklyGoal","type":"uint256","internalType":"uint256"},{"name":"safetyBuffer","type":"uint256","internalType":"uint256"},{"name":"lastSaveTimestamp","type":"uint256","internalType":"uint256"},{"name":"isActive","type":"bool","internalType":"bool"},{"name":"trustMode","type":"uint8","internalType":"enum SavingsVault.TrustMode"}],"stateMutability":"view"},{"type":"function","name":"s_backendServer","inputs":[],"outputs":[{"name":"","type":"address","internalType":"address"}],"stateMutability":"view"},{"type":"function","name":"s_totalValueLocked","inputs":[],"outputs":[{"name":"","type":"uint256","internalType":"uint256"}],"stateMutability":"view"},{"type":"function","name":"s_yieldStrategy","inputs":[],"outputs":[{"name":"","type":"address","internalType":"contract IVVSYieldStrategy"}],"stateMutability":"view"},{"type":"function","name":"setBackendServer","inputs":[{"name":"_backendServer","type":"address","internalType":"address"}],"outputs":[],"stateMutability":"nonpayable"},{"type":"function","name":"setYieldStrategy","inputs":[{"name":"_yieldStrategy","type":"address","internalType":"address"}],"outputs":[],"stateMutability":"nonpayable"},{"type":"function","name":"totalValueLocked","inputs":[],"outputs":[{"name":"","type":"uint256","internalType":"uint256"}],"stateMutability":"view"},{"type":"function","name":"transferOwnership","inputs":[{"name":"newOwner","type":"address","internalType":"address"}],"outputs":[],"stateMutability":"nonpayable"},{"type":"function","name":"unpause","inputs":[],"outputs":[],"stateMutability":"nonpayable"},{"type":"function","name":"updateGoal","inputs":[{"name":"newWeeklyGoal","type":"uint256","internalType":"uint256"}],"outputs":[],"stateMutability":"nonpayable"},{"type":"function","name":"updateTrustMode","inputs":[{"name":"newMode","type":"uint8","internalType":"enum SavingsVault.TrustMode"}],"outputs":[],"stateMutability":"nonpayable"},{"type":"function","name":"withdraw","inputs":[{"name":"amount","type":"uint256","internalType":"uint256"}],"outputs":[],"stateMutability":"nonpayable"},{"type":"function","name":"yieldStrategy","inputs":[],"outputs":[{"name":"","type":"address","internalType":"address"}],"stateMutability":"view"},{"type":"event","name":"AccountCreated","inputs":[{"name":"user","type":"address","indexed":true,"internalType":"address"},{"name":"weeklyGoal","type":"uint256","indexed":false,"internalType":"uint256"},{"name":"safetyBuffer","type":"uint256","indexed":false,"internalType":"uint256"},{"name":"trustMode","type":"uint8","indexed":false,"internalType":"enum SavingsVault.TrustMode"}],"anonymous":false},{"type":"event","name":"AutoSaveExecuted","inputs":[{"name":"user","type":"address","indexed":true,"internalType":"address"},{"name":"amount","type":"uint256","indexed":false,"internalType":"uint256"},{"name":"triggeredBy","type":"address","indexed":false,"internalType":"address"}],"anonymous":false},{"type":"event","name":"BackendServerUpdated","inputs":[{"name":"oldServer","type":"address","indexed":true,"internalType":"address"},{"name":"newServer","type":"address","indexed":true,"internalType":"address"}],"anonymous":false},{"type":"event","name":"Deposited","inputs":[{"name":"user","type":"address","indexed":true,"internalType":"address"},{"name":"amount","type":"uint256","indexed":false,"internalType":"uint256"},{"name":"newBalance","type":"uint256","indexed":false,"internalType":"uint256"}],"anonymous":false},{"type":"event","name":"DepositedToYield","inputs":[{"name":"user","type":"address","indexed":true,"internalType":"address"},{"name":"amount","type":"uint256","indexed":false,"internalType":"uint256"},{"name":"liquidityTokens","type":"uint256","indexed":false,"internalType":"uint256"}],"anonymous":false},{"type":"event","name":"GoalUpdated","inputs":[{"name":"user","type":"address","indexed":true,"internalType":"address"},{"name":"newWeeklyGoal","type":"uint256","indexed":false,"internalType":"uint256"}],"anonymous":false},{"type":"event","name":"OwnershipTransferred","inputs":[{"name":"previousOwner","type":"address","indexed":true,"internalType":"address"},{"name":"newOwner","type":"address","indexed":true,"internalType":"address"}],"anonymous":false},{"type":"event","name":"Paused","inputs":[{"name":"account","type":"address","indexed":false,"internalType":"address"}],"anonymous":false},{"type":"event","name":"TrustModeUpdated","inputs":[{"name":"user","type":"address","indexed":true,"internalType":"address"},{"name":"newMode","type":"uint8","indexed":false,"internalType":"enum SavingsVault.TrustMode"}],"anonymous":false},{"type":"event","name":"Unpaused","inputs":[{"name":"account","type":"address","indexed":false,"internalType":"address"}],"anonymous":false},{"type":"event","name":"Withdrawn","inputs":[{"name":"user","type":"address","indexed":true,"internalType":"address"},{"name":"amount","type":"uint256","indexed":false,"internalType":"uint256"},{"name":"newBalance","type":"uint256","indexed":false,"internalType":"uint256"}],"anonymous":false},{"type":"event","name":"WithdrawnFromYield","inputs":[{"name":"user","type":"address","indexed":true,"internalType":"address"},{"name":"liquidityTokens","type":"uint256","indexed":false,"internalType":"uint256"},{"name":"usdcAmount","type":"uint256","indexed":false,"internalType":"uint256"}],"anonymous":false},{"type":"event","name":"YieldStrategyUpdated","inputs":[{"name":"oldStrategy","type":"address","indexed":true,"internalType":"address"},{"name":"newStrategy","type":"address","indexed":true,"internalType":"address"}],"anonymous":false},{"type":"error","name":"EnforcedPause","inputs":[]},{"type":"error","name":"ExpectedPause","inputs":[]},{"type":"error","name":"OwnableInvalidOwner","inputs":[{"name":"owner","type":"address","internalType":"address"}]},{"type":"error","name":"OwnableUnauthorizedAccount","inputs":[{"name":"account","type":"address","internalType":"address"}]},{"type":"error","name":"ReentrancyGuardReentrantCall","inputs":[]},{"type":"error","name":"SafeERC20FailedOperation","inputs":[{"name":"token","type":"address","internalType":"address"}]},{"type":"error","name":"SavingsVault__AccountAlreadyExists","inputs":[]},{"type":"error","name":"SavingsVault__AccountNotActive","inputs":[]},{"type":"error","name":"SavingsVault__AmountExceedsLimit","inputs":[]},{"type":"error","name":"SavingsVault__GoalNotPositive","inputs":[]},{"type":"error","name":"SavingsVault__InsufficientBalance","inputs":[]},{"type":"error","name":"SavingsVault__InvalidAmount","inputs":[]},{"type":"error","name":"SavingsVault__SaveIntervalNotMet","inputs":[]},{"type":"error","name":"SavingsVault__UnauthorizedCaller","inputs":[]},{"type":"error","name":"SavingsVault__ZeroAddress","inputs":[]}],"bytecode":{"object":"0x60a060405234801562000010575f80fd5b5060405162001d0738038062001d0783398101604081905262000033916200011b565b60017f9b779b17422d0df92223018b32b4d1fa46e071723d6817e2486d003becc55f005533806200007d57604051631e4fbdf760e01b81525f600482015260240160405180910390fd5b6200008881620000c3565b506001600160a01b038116620000b157604051630380179960e11b815260040160405180910390fd5b6001600160a01b03166080526200014a565b5f80546001600160a01b03838116610100818102610100600160a81b0319851617855560405193049190911692909183917f8be0079c531659141344cd1fd0a4f28419497f9722a3daafe3b4186f6b6457e091a35050565b5f602082840312156200012c575f80fd5b81516001600160a01b038116811462000143575f80fd5b9392505050565b608051611b81620001865f395f8181610393015281816106d9015281816107f601528181610c130152818161105201526114f20152611b815ff3fe608060405234801561000f575f80fd5b50600436106101c6575f3560e01c806361d9a300116100fe57806384ea35111161009e578063e1e158a51161006e578063e1e158a514610404578063ec18154e1461040e578063f2fde38b14610416578063fbcbc0f114610429575f80fd5b806384ea3511146103bd5780638da5cb5b146103c9578063b6b55f25146103de578063bccfb5b8146103f1575f80fd5b80637923076c116100d95780637923076c14610368578063799387f81461037b578063804b40961461038e5780638456cb59146103b5575f80fd5b806361d9a3001461033a578063669b4f121461034d578063715018a614610360575f80fd5b80632f4f21e211610169578063426817881161014457806342681788146102a1578063434728c91461030c5780634372e6e61461031f5780635c975abb14610330575f80fd5b80632f4f21e214610273578063316fb7c4146102865780633f4ba83a14610299575f80fd5b8063288e2c7f116101a4578063288e2c7f146102205780632bbc70ba1461022a5780632c4f24161461024d5780632e1a7d4d14610260575f80fd5b806302e9f3b5146101ca57806313f14fee146101e657806315df797c1461020b575b5f80fd5b6101d360045481565b6040519081526020015b60405180910390f35b6001546001600160a01b03165b6040516001600160a01b0390911681526020016101dd565b61021e6102193660046118c2565b610449565b005b6101d36201518081565b61023d6102383660046118c2565b6104c9565b60405190151581526020016101dd565b61021e61025b3660046118c2565b6105ae565b61021e61026e3660046118e2565b61062e565b61021e6102813660046118f9565b610881565b61021e6102943660046118e2565b610a16565b61021e610ab9565b6102f86102af3660046118c2565b600360208190525f918252604090912080546001820154600283015493830154600484015460058501546006909501549395929492939192909160ff8082169161010090041688565b6040516101dd989796959493929190611955565b6002546101f3906001600160a01b031681565b6002546001600160a01b03166101f3565b5f5460ff1661023d565b61021e6103483660046118f9565b610acb565b61021e61035b3660046119ae565b610d00565b61021e610da0565b6101d36103763660046118c2565b610db1565b61021e6103893660046119c7565b610e54565b6101f37f000000000000000000000000000000000000000000000000000000000000000081565b61021e610fcf565b6101d36402540be40081565b5f5461010090046001600160a01b03166101f3565b61021e6103ec3660046118e2565b610fdf565b6001546101f3906001600160a01b031681565b6101d3620f424081565b6004546101d3565b61021e6104243660046118c2565b611156565b61043c6104373660046118c2565b611195565b6040516101dd91906119f9565b610451611245565b6001600160a01b03811661047857604051630380179960e11b815260040160405180910390fd5b600280546001600160a01b038381166001600160a01b0319831681179093556040519116919082907f2d9da794a792bf262b984e18ede26ca4f85bb8fabe1908df7a96ae3c6d08222a905f90a35050565b6001600160a01b0381165f90815260036020818152604080842081516101008082018452825482526001808401549583019590955260028301549382019390935293810154606085015260048101546080850152600581015460a0850152600681015460ff808216151560c0870152869594929360e08601939204169081111561055557610555611921565b600181111561056657610566611921565b8152505090508060c0015161057d57505f92915050565b8060a001515f036105915750600192915050565b620151808160a001516105a49190611a70565b4210159392505050565b6105b6611245565b6001600160a01b0381166105dd57604051630380179960e11b815260040160405180910390fd5b600180546001600160a01b038381166001600160a01b0319831681179093556040519116919082907fbffd2f20a06ca0304329080309bdd314339b2a5afe9927f8b3100220b661c947905f90a35050565b610636611277565b61063e611292565b805f0361065e57604051636b40615d60e01b815260040160405180910390fd5b335f9081526003602052604090206006015460ff1661069057604051635fcac8c560e01b815260040160405180910390fd5b335f908152600360205260409020600201548111156106c257604051631058d88960e11b815260040160405180910390fd5b6040516370a0823160e01b81523060048201525f907f00000000000000000000000000000000000000000000000000000000000000006001600160a01b0316906370a0823190602401602060405180830381865afa158015610726573d5f803e3d5ffd5b505050506040513d601f19601f8201168201806040525081019061074a9190611a83565b9050818110801561076557506001546001600160a01b031615155b15610784575f6107758284611a9a565b905061078133826112b5565b50505b335f90815260036020526040812060010180548492906107a5908490611a70565b9091555050335f90815260036020526040812060020180548492906107cb908490611a9a565b925050819055508160045f8282546107e39190611a9a565b9091555061081d90506001600160a01b037f000000000000000000000000000000000000000000000000000000000000000016338461148f565b335f81815260036020908152604091829020600201548251868152918201527f92ccf450a286a957af52509bc1c9939d1a6a481783e142e41e2499f0bb66ebc6910160405180910390a25061087e60015f80516020611b2c83398151915255565b50565b610889611277565b610891611292565b6002546001600160a01b031633146108bc5760405163e5896abf60e01b815260040160405180910390fd5b620f42408110156108e057604051636b40615d60e01b815260040160405180910390fd5b6001600160a01b0382165f9081526003602052604090206006015460ff1661091b57604051635fcac8c560e01b815260040160405180910390fd5b6001600160a01b0382165f9081526003602052604081208054839290610942908490611a70565b90915550506001600160a01b0382165f9081526003602052604081206002018054839290610971908490611a70565b925050819055508060045f8282546109899190611a70565b90915550506001600160a01b0382165f81815260036020908152604091829020600201548251858152918201527f73a19dd210f1a7f902193214c0ee91dd35ee5b4d920cba8d519eca65a7b488ca910160405180910390a26001546001600160a01b0316156109fc576109fc82826114c9565b610a1260015f80516020611b2c83398151915255565b5050565b335f9081526003602052604090206006015460ff16610a4857604051635fcac8c560e01b815260040160405180910390fd5b805f03610a6857604051639bb6be5560e01b815260040160405180910390fd5b335f8181526003602081905260409182902001839055517f474fe63059a841e6d9c8fe12033022d7e7df5b2c65bc59aba2b24c57977b695990610aae9084815260200190565b60405180910390a250565b610ac1611245565b610ac9611617565b565b610ad3611277565b610adb611292565b6001600160a01b0382165f908152600360205260409020600681015460ff16610b1757604051635fcac8c560e01b815260040160405180910390fd5b811580610b2857506402540be40082115b15610b465760405163305bc5db60e21b815260040160405180910390fd5b60016006820154610100900460ff166001811115610b6657610b66611921565b03610b9b576002546001600160a01b03163314610b965760405163e5896abf60e01b815260040160405180910390fd5b610bc4565b336001600160a01b03841614610bc45760405163e5896abf60e01b815260040160405180910390fd5b600581015415801590610be85750620151808160050154610be59190611a70565b42105b15610c065760405163e7e0f87560e01b815260040160405180910390fd5b610c3b6001600160a01b037f000000000000000000000000000000000000000000000000000000000000000016843085611668565b81815f015f828254610c4d9190611a70565b9250508190555081816002015f828254610c679190611a70565b9091555050426005820155600480548391905f90610c86908490611a70565b9091555050604080518381523360208201526001600160a01b038516917f6cfb5d0fc3e62cd62db226c659fadf025293e2ecca33a4d397825894eafa12a9910160405180910390a26001546001600160a01b031615610ce957610ce983836114c9565b50610a1260015f80516020611b2c83398151915255565b335f9081526003602052604090206006015460ff16610d3257604051635fcac8c560e01b815260040160405180910390fd5b335f908152600360205260409020600601805482919061ff001916610100836001811115610d6257610d62611921565b0217905550336001600160a01b03167f0cdf4c1bd8aa029a8c34989389e102136dd960f9db4d4055f8b22906505daaa882604051610aae9190611aad565b610da8611245565b610ac95f6116a4565b6001600160a01b038082165f90815260036020526040812060020154600154919290911615610e4e5760015460405163a78c849b60e01b81526001600160a01b0385811660048301525f92169063a78c849b90602401602060405180830381865afa158015610e22573d5f803e3d5ffd5b505050506040513d601f19601f82011682018060405250810190610e469190611a83565b949350505050565b92915050565b335f9081526003602052604090206006015460ff1615610e875760405163bf76c0a360e01b815260040160405180910390fd5b825f03610ea757604051639bb6be5560e01b815260040160405180910390fd5b6040518061010001604052805f81526020015f81526020015f81526020018481526020018381526020015f8152602001600115158152602001826001811115610ef257610ef2611921565b9052335f9081526003602081815260409283902084518155908401516001808301919091559284015160028201556060840151918101919091556080830151600482015560a0830151600582015560c083015160068201805491151560ff1983168117825560e08601519394919261ff001990911661ffff199091161790610100908490811115610f8557610f85611921565b0217905550506040513391507f2fd16478f9226ac29c52ad8c6514c51905a89691d1242fad9b0133aeb0a9c07190610fc290869086908690611abb565b60405180910390a2505050565b610fd7611245565b610ac96116fc565b610fe7611277565b610fef611292565b620f424081101561101357604051636b40615d60e01b815260040160405180910390fd5b335f9081526003602052604090206006015460ff1661104557604051635fcac8c560e01b815260040160405180910390fd5b61107a6001600160a01b037f000000000000000000000000000000000000000000000000000000000000000016333084611668565b335f9081526003602052604081208054839290611098908490611a70565b9091555050335f90815260036020526040812060020180548392906110be908490611a70565b925050819055508060045f8282546110d69190611a70565b9091555050335f81815260036020908152604091829020600201548251858152918201527f73a19dd210f1a7f902193214c0ee91dd35ee5b4d920cba8d519eca65a7b488ca910160405180910390a26001546001600160a01b0316156111405761114033826114c9565b61087e60015f80516020611b2c83398151915255565b61115e611245565b6001600160a01b03811661118c57604051631e4fbdf760e01b81525f60048201526024015b60405180910390fd5b61087e816116a4565b61119d611858565b6001600160a01b0382165f9081526003602081815260409283902083516101008082018652825482526001808401549483019490945260028301549582019590955292810154606084015260048101546080840152600581015460a0840152600681015460ff808216151560c08601529394919360e086019392909104169081111561122b5761122b611921565b600181111561123c5761123c611921565b90525092915050565b5f546001600160a01b03610100909104163314610ac95760405163118cdaa760e01b8152336004820152602401611183565b61127f611738565b60025f80516020611b2c83398151915255565b5f5460ff1615610ac95760405163d93c066560e01b815260040160405180910390fd5b600154604051630d94accb60e21b81526001600160a01b0384811660048301525f928392911690633652b32c90602401602060405180830381865afa158015611300573d5f803e3d5ffd5b505050506040513d601f19601f820116820180604052508101906113249190611a83565b9050805f03611336575f915050610e4e565b60015460405163a78c849b60e01b81526001600160a01b0386811660048301525f92169063a78c849b90602401602060405180830381865afa15801561137e573d5f803e3d5ffd5b505050506040513d601f19601f820116820180604052508101906113a29190611a83565b90505f8185106113b35750816113cb565b816113be8685611ad6565b6113c89190611aed565b90505b60015460405163f3fef3a360e01b81526001600160a01b038881166004830152602482018490529091169063f3fef3a3906044016020604051808303815f875af115801561141b573d5f803e3d5ffd5b505050506040513d601f19601f8201168201806040525081019061143f9190611a83565b60408051838152602081018390529195506001600160a01b038816917fa22f92925279752d3c6e60385e6f61a6d6c9ec71b411d09b3eaac9ae65c9196f910160405180910390a250505092915050565b61149c8383836001611767565b6114c457604051635274afe760e01b81526001600160a01b0384166004820152602401611183565b505050565b60015460405163095ea7b360e01b81526001600160a01b039182166004820152602481018390527f00000000000000000000000000000000000000000000000000000000000000009091169063095ea7b3906044016020604051808303815f875af115801561153a573d5f803e3d5ffd5b505050506040513d601f19601f8201168201806040525081019061155e9190611b0c565b506001546040516311f9fbc960e21b81526001600160a01b038481166004830152602482018490525f9216906347e7ef24906044016020604051808303815f875af11580156115af573d5f803e3d5ffd5b505050506040513d601f19601f820116820180604052508101906115d39190611a83565b60408051848152602081018390529192506001600160a01b038516917f32eeaea5504b75a64ba0f0b67d3c995711642ffa2087423c7a88452b6fbcb4df9101610fc2565b61161f6117c9565b5f805460ff191690557f5db9ee0a495bf2e6ff9c91a7834c1ba4fdd244a5e8aa4e537bd38aeae4b073aa335b6040516001600160a01b03909116815260200160405180910390a1565b6116768484848460016117eb565b61169e57604051635274afe760e01b81526001600160a01b0385166004820152602401611183565b50505050565b5f80546001600160a01b03838116610100818102610100600160a81b0319851617855560405193049190911692909183917f8be0079c531659141344cd1fd0a4f28419497f9722a3daafe3b4186f6b6457e091a35050565b611704611292565b5f805460ff191660011790557f62e78cea01bee320cd4e420270b5ea74000d11b0c9f74754ebdbfc544b05a25861164b3390565b5f80516020611b2c83398151915254600203610ac957604051633ee5aeb560e01b815260040160405180910390fd5b60405163a9059cbb60e01b5f8181526001600160a01b038616600452602485905291602083604481808b5af1925060015f511483166117bd5783831516156117b1573d5f823e3d81fd5b5f873b113d1516831692505b60405250949350505050565b5f5460ff16610ac957604051638dfc202b60e01b815260040160405180910390fd5b6040516323b872dd60e01b5f8181526001600160a01b038781166004528616602452604485905291602083606481808c5af1925060015f5114831661184757838315161561183b573d5f823e3d81fd5b5f883b113d1516831692505b604052505f60605295945050505050565b6040518061010001604052805f81526020015f81526020015f81526020015f81526020015f81526020015f81526020015f151581526020015f60018111156118a2576118a2611921565b905290565b80356001600160a01b03811681146118bd575f80fd5b919050565b5f602082840312156118d2575f80fd5b6118db826118a7565b9392505050565b5f602082840312156118f2575f80fd5b5035919050565b5f806040838503121561190a575f80fd5b611913836118a7565b946020939093013593505050565b634e487b7160e01b5f52602160045260245ffd5b6002811061195157634e487b7160e01b5f52602160045260245ffd5b9052565b5f610100820190508982528860208301528760408301528660608301528560808301528460a083015283151560c083015261199360e0830184611935565b9998505050505050505050565b8035600281106118bd575f80fd5b5f602082840312156119be575f80fd5b6118db826119a0565b5f805f606084860312156119d9575f80fd5b83359250602084013591506119f0604085016119a0565b90509250925092565b5f61010082019050825182526020830151602083015260408301516040830152606083015160608301526080830151608083015260a083015160a083015260c0830151151560c083015260e0830151611a5560e0840182611935565b5092915050565b634e487b7160e01b5f52601160045260245ffd5b80820180821115610e4e57610e4e611a5c565b5f60208284031215611a93575f80fd5b5051919050565b81810381811115610e4e57610e4e611a5c565b60208101610e4e8284611935565b8381526020810183905260608101610e466040830184611935565b8082028115828204841417610e4e57610e4e611a5c565b5f82611b0757634e487b7160e01b5f52601260045260245ffd5b500490565b5f60208284031215611b1c575f80fd5b815180151581146118db575f80fdfe9b779b17422d0df92223018b32b4d1fa46e071723d6817e2486d003becc55f00a2646970667358221220831c8b7b734c2ce708fc93831f9db7107fd2930bc19aa2179ee7c3a800a2049e64736f6c63430008140033","linkReferences":{}},"methodIdentifiers":{"MAX_SAVE_AMOUNT()":"84ea3511","MIN_DEPOSIT()":"e1e158a5","MIN_SAVE_INTERVAL()":"288e2c7f","autoSave(address,uint256)":"61d9a300","backendServer()":"4372e6e6","canAutoSave(address)":"2bbc70ba","createAccount(uint256,uint256,uint8)":"799387f8","deposit(uint256)":"b6b55f25","depositFor(address,uint256)":"2f4f21e2","getAccount(address)":"fbcbc0f1","getUserTotalBalance(address)":"7923076c","i_USDC()":"804b4096","owner()":"8da5cb5b","pause()":"8456cb59","paused()":"5c975abb","renounceOwnership()":"715018a6","s_accounts(address)":"42681788","s_backendServer()":"434728c9","s_totalValueLocked()":"02e9f3b5","s_yieldStrategy()":"bccfb5b8","setBackendServer(address)":"15df797c","setYieldStrategy(address)":"2c4f2416","totalValueLocked()":"ec18154e","transferOwnership(address)":"f2fde38b","unpause()":"3f4ba83a","updateGoal(uint256)":"316fb7c4","updateTrustMode(uint8)":"669b4f12","withdraw(uint256)":"2e1a7d4d","yieldStrategy()":"13f14fee"},"id":33}